:020000040800F2
:100000007007002091010008770500086F050008BF
:100010007305000841040008EB0D00080000000013
:1000200000000000000000000000000015070008AC
:100030004504000800000000FD0500083F07000817
:10004000A7010008A7010008A7010008A7010008F0
:10005000A7010008A7010008A7010008A7010008E0
:10006000A7010008A7010008A7010008A7010008D0
:10007000A7010008A7010008A7010008A7010008C0
:10008000A7010008A7010008A7010008A7010008B0
:10009000A7010008A7010008A7010008A7010008A0
:1000A000A7010008A7010008A7010008A701000890
:1000B0004107000825080008A7010008A70100085B
:1000C000A7010008A7010008A7010008A701000870
:1000D000A7010008C90B0008A7010008A701000834
:1000E000A7010008A7010008A701000800F002F816
:1000F00000F03FF80AA090E8000C82448344AAF183
:100100000107DA4501D100F034F8AFF2090EBAE880
:100110000F0013F0010F18BFFB1A43F0010318473B
:100120002011000040110000103A24BF78C878C1A7
:10013000FAD8520724BF30C830C144BF04680C60ED
:10014000704700000023002400250026103A28BF35
:1001500078C1FBD8520728BF30C148BF0B60704739
:10016000642900F07380002070471FB51FBD10B5D3
:1001700010BD00F033F91146FFF7F7FF00F06AFEFB
:1001800000F051F903B4FFF7F2FF03BC00F02FFEBB
:1001900008480047FEE7FEE7FEE7FEE7FEE7FEE76A
:1001A000FEE7FEE7FEE7FEE703480449044A054B85
:1001B00070470000ED00000870010020700700206B
:1001C0007003002070030020704700000FB4044942
:1001D00010B503AA029800F0D3F810BC5DF814FB28
:1001E000280000202DE9F0410E4604460020206240
:1001F0002046E168884730B3252805D0D4E901219D
:100200009047206A401CF2E7E168204600278847B3
:10021000050018D0A5F14100192802D820354FF467
:1002200000673246294620462760FFF799FF40B114
:10023000012804D0F61D26F007060836D8E7361D3B
:10024000D6E72846DAE7206ABDE8F0812DE9F041DB
:100250000646002410687529314616A510D0AFF364
:100260000080002802DA404213A507E031688A07BF
:1002700001D512A502E0490704D511A5012401E02A
:10028000AFF3008000210A2206F1240709E0B0FB49
:10029000F2FCB0FBF2F302FB1C003030785418463D
:1002A000491C0028F3D123462A463046BDE8F041D8
:1002B00000F00CB8000000002D0000002B00000032
:1002C0002000000070477047704770472DE9F047E5
:1002D0000D4699469246044600F1240801688806B6
:1002E00004D5E06921F01001216000E00120A8425E
:1002F00001DD471B00E00027A1697A1902EB090024
:10030000081AA0612078C00602D42046AFF300800E
:10031000002608E0D4E901211AF806009047206A77
:10032000401C761C20624E45F4DB2078C0060AD5BE
:100330002046AFF3008006E0D4E901213020904749
:10034000206A401C2062381EA7F10107F4DC07E098
:10035000D4E9012118F805009047206A401C20626A
:10036000281EA5F10105F3DC2046AFF300802078BC
:10037000000602D50220BDE8F0870120FBE700005F
:10038000074B70B50D467B4400F011F80446284633
:1003900000F020F810B14FF0FF3070BD204670BD66
:1003A000AF0A000001694A1C02610878704700B575
:1003B0008FB0CDE901310021059105497944CDE99E
:1003C000031011466846FFF70DFF0FB000BD000097
:1003D000E5FFFFFF007B00F080007047754600F0EE
:1003E0002BF8AE4605006946534620F007008546C7
:1003F00018B020B5FFF7D8FEBDE820404FF000064A
:100400004FF000074FF000084FF0000B21F00701FC
:10041000AC46ACE8C009ACE8C009ACE8C009ACE83F
:10042000C0098D46704710B50446AFF300802046E2
:10043000BDE81040FFF7A6BE004870470C01002041
:1004400000BFFEE770472DE9F04102460025002677
:10045000002000230024002791F803C00CF00F05B2
:1004600091F803C00CF0100CBCF1000F03D091F810
:1004700002C04CEA050591F800C0BCF1000F31D074
:10048000146800202BE04FF0010C0CFA00F3B1F8D7
:1004900000C00CEA03069E4220D183004FF00F0CEF
:1004A0000CFA03F7BC4305FA03FC4CEA040491F888
:1004B00003C0BCF1280F06D14FF0010C0CFA00FC70
:1004C000C2F814C00AE091F803C0BCF1480F05D18E
:1004D0004FF0010C0CFA00FCC2F810C0401C0828B8
:1004E000D1D31460B1F800C0BCF1FF0F34DD546803
:1004F00000202EE000F1080C4FF0010808FA0CF380
:10050000B1F800C00CEA03069E4221D183004FF0EF
:100510000F0C0CFA03F7BC4305FA03FC4CEA040485
:1005200091F803C0BCF1280F05D100F1080C08FABE
:100530000CF8C2F8148091F803C0BCF1480F07D141
:1005400000F1080C4FF0010808FA0CF8C2F810800E
:10055000401C0828CED35460BDE8F081024600203C
:1005600093680B400BB1012000E00020704700BFF2
:10057000FEE700BFFEE7704770B5002100230F22A1
:10058000C47804B3154C246804F4E064C4F5E06452
:10059000210AC1F10403CA40447804FA03F18478C3
:1005A0001440214309010E4C0678A155047804F04B
:1005B0001F050124AC4005786D11AD0005F1E02563
:1005C000C5F8004109E0047804F01F050124AC409F
:1005D000044D0678761145F8264070BD0CED00E01C
:1005E00000E400E080E100E002490143024A1160BA
:1005F000704700000000FA050CED00E070470000B5
:1006000029B1064AD2690243044BDA6104E0034A85
:10061000D2698243014BDA6170470000001002404A
:1006200029B1064A92690243044B9A6104E0034AE5
:1006300092698243014B9A617047000000100240AA
:1006400030B500210022002400232D4D6D6805F0F7
:100650000C0121B1042905D0082923D105E0294D39
:10066000056022E0274D05601FE0254D6D6805F40B
:100670007012234D6D6805F48034022505EB92421B
:100680001CB9214D554305600BE01D4D6D6805F407
:1006900000351DB11C4D5543056002E0194D554311
:1006A000056002E0174D056000BF00BF144D6D6886
:1006B00005F0F0010909154D6B5C0568DD404560EA
:1006C0000F4D6D6805F4E061090A104D6B5C4568DB
:1006D000DD4085600A4D6D6805F46051C90A0B4D17
:1006E0006B5C4568DD40C560054D6D6805F44041B3
:1006F000890B074D6B5CC568B5FBF3F5056130BD33
:100700000010024000127A0000093D002E00002077
:100710003E0000207047042808D14FF0E02109690D
:1007200041F004014FF0E022116107E04FF0E021B9
:10073000096921F004014FF0E02211617047704710
:1007400010B50121880700F003F9012803D1012128
:10075000800700F0DFF810BD30B589B005460C46C3
:1007600001210846FFF74CFF01210420FFF758FF45
:100770000A20ADF8200018208DF8230003208DF802
:10078000220008A92648FFF75EFEADF81850ADF824
:1007900014400020ADF81A00ADF8160005A94FF07E
:1007A000804000F09FF97020ADF804000120ADF802
:1007B00006000020ADF80C0001A94FF0804000F0C9
:1007C000E1F801A94FF0804000F03CF901218807D1
:1007D00000F0AFF81C208DF8000002208DF8010019
:1007E0008DF8020001208DF803006846FFF7C4FE73
:1007F0000821C80600F018F90821C80600F060F9C1
:100800000121880700F07AF80121880700F085F8B7
:1008100001221146900700F0ACF809B030BD00008D
:100820000008014010B50121144800F091F801289A
:1008300022D1134800684042114908602021114824
:10084000FFF78CFE1049087002211048FFF786FE62
:100850000F4908704FF400610A48FFF77FFE0D4909
:1008600008704FF480510748FFF778FE0A49087076
:100870000121024800F04EF810BD000000040040C5
:100880000C0000200008014003000020000C014083
:100890000200002001000020000000207FB5054676
:1008A0000C4601210220FFF7ABFEADF80850ADF871
:1008B00004400020ADF80A00ADF8060001A90E487A
:1008C00000F010F91D208DF8000000208DF80100C7
:1008D00002208DF8020001208DF803006846FFF722
:1008E0004BFE0121044800F018F80122114602488D
:1008F00000F03FF87FBD00000004004021B10288F5
:1009000042F08002028004E002884FF67F731A40B2
:1009100002807047CA430282704721B1028842F0C8
:100920000102028004E002884FF6FE731A40028042
:10093000704731B1B0F8442042F40042A0F844209E
:1009400005E0B0F84420C2F30E02A0F8442070473E
:1009500030B50246002000230024158A05EA010371
:10096000958905EA010413B10CB1012000E00020D3
:1009700030BD1AB183890B43838102E083898B43A5
:100980008381704770B5002400220023058C4FF648
:10099000EF7635400584028C8388048B48F6FF751A
:1009A0002C404FF6FF452C400D884FF6FF7606EAA7
:1009B00005252C434FF6DF752A400D8906EA0515FB
:1009C0002A434D8806EA05152A43154DA84202D050
:1009D000144DA8421DD14FF67F752A404D894FF620
:1009E000FF7606EA05152A434FF6BF752A408D8823
:1009F00006EA05152A434FF6FF352B404FF2FF75E7
:100A00002B408D8906EA85052B43CD8906EA8505AD
:100A10002B4383800483CD880587028470BD00004A
:100A2000002C0140003401400A460021018B4FF2A6
:100A3000FF7319404FF6FF7303EA02231943018342
:100A40007047000070B5002200230024058C4EF68C
:100A5000FF7635400584038C8488828B48F6FF75C9
:100A60002A404FF6FF452A400D884FF6FF7606EAEA
:100A700005252A434DF6FF752B400D8906EA0535FD
:100A80002B434D8806EA05352B430B4DA84202D077
:100A90000A4DA84208D14BF6FF752C408D894FF6C0
:100AA000FF7606EA85152C4384808283CD88A0F8E2
:100AB0004050038470BD0000002C01400034014010
:100AC0000A460021818B4FF2FF7319404FF6FF73E6
:100AD00003EA022319438183704701877047A0F816
:100AE00040107047002202881D4B98420ED01D4BCB
:100AF00098420BD0B0F1804F08D01B4B984205D0E4
:100B00001A4B984202D01A4B984204D14FF68F7379
:100B10001A404B881A43174B984207D0164B9842FD
:100B200004D04FF6FF431A40CB881A4302808B88CB
:100B300083850B8803850A4B98420BD0094B98425A
:100B400008D00E4B984205D00D4B984202D00D4B69
:100B5000984201D10B7A03860123838270470000FB
:100B6000002C014000340140000400400008004017
:100B7000000C004000100040001400400040014004
:100B8000004401400048014008B501210C20FFF756
:100B900047FD41F60200ADF8000028208DF8030063
:100BA00069460748FFF74FFC2020ADF800002820D9
:100BB0008DF8030069460348FFF745FC08BD0000B7
:100BC000000C01400008014010B540F225511D48BD
:100BD00000F04AF810B31B4800F002F9C4B21A48FA
:100BE000008800F40040C8B91748008800F480402D
:100BF00060B10A2C03D000201349088020E012487D
:100C0000008840F400401049088019E00D2C06D1FE
:100C10000D48008840F480400B49088010E00A48E5
:100C20000088C0F30D0009490C5407480088401C97
:100C30000549088008460088C72801DD0020088093
:100C400010BD0000003801402C00002044000020AE
:100C500021B1828942F40052828104E082894DF6FA
:100C6000FF731A408281704770B50246002400234A
:100C70000025002040F66A16B14200D100BFC1F342
:100C8000421501F01F03012606FA03F3012D02D1DC
:100C90009689334006E0022D02D1168A334001E0E6
:100CA000968A33400C12012606FA04F41688344062
:100CB00013B10CB1012000E0002070BDF0B5034677
:100CC000002400260025002040F66A17B94200D112
:100CD00000BF1846C1F3421401F01F06012707FAAE
:100CE00006F5012C01D10C3004E0022C01D11030AA
:100CF00000E014301AB107682F43076002E007686C
:100D0000AF430760F0BD00002DE9F04786B005460F
:100D10000E460024A24600BFA1460027B08900B1BC
:100D200000BF2F462C8A4CF6FF700440F088044325
:100D30002C82AC894EF6F3100440B0883189084308
:100D4000718908430443AC81AC8A4FF6FF400440EC
:100D5000B0890443AC8201A8FFF772FC1F488742A8
:100D600002D1DDF810A001E0DDF80CA0A88900F4A4
:100D7000004040B10AEBCA0000EB0A10316849009C
:100D8000B0FBF1F807E00AEBCA0000EB0A1031688B
:100D90008900B0FBF1F86420B8FBF0F004012009F1
:100DA000642101FB1089A88900F4004040B1322081
:100DB00000EBC900B0FBF1F000F00700044308E0CD
:100DC000322000EB09106421B0FBF1F000F00F00BD
:100DD00004432C8106B0BDE8F087000000380140D4
:100DE00001468888C0F30800704700BFFEE701464F
:100DF00000BF704710B56FF00400FFF78CFC0A4885
:100E000000680A49B0FBF1F009490870084600780B
:100E100000EB4001C1EBC0104FF6FF7101EAC000CA
:100E20000449088010BD00001000002000127A0064
:100E3000240000202600002000BF054A128802F08E
:100E40004002002AF9D0C2B2014B1B1D1A80704724
:100E50000038014008B54FF4A060FFF7C5FBFFF76D
:100E6000C9FFFFF791FE4FF4165000F099F941F6D3
:100E70001F41C720FFF770FC41F63F116320FFF7C9
:100E80000DFDC0E060480068401C0028F9D15F48B3
:100E9000007800905E4803785E4802785E480178EA
:100EA0005EA0FFF793F9624801884FF08040FFF79A
:100EB00016FE604801884FF08040FFF70EFE56484E
:100EC0000078E8B953480078D0B951480078B8B9EB
:100ED0004E480078A0B95848008820B1012805D0B4
:100EE000022809D105E000F0C5F808E000F0FEF89E
:100EF00005E000F037F902E000F0A0F800BF00BF05
:100F00004548007870B94348007801280AD1404824
:100F1000007838B93D48007820B900F0C9F80020C1
:100F2000454908803C48007801280ED139480078AE
:100F300001280AD13648007838B93448007820B9F9
:100F400000F0D4F801203C4908803348007801289B
:100F50000DD13048007850B92D48007838B92B4869
:100F6000007820B900F0C2F80120334908802A48EF
:100F7000007870B92748007858B9254800780128CA
:100F800007D12248007820B900F0CEF800202A4985
:100F900008802148007870B91E48007858B91C486C
:100FA000007840B919480078012804D100F0DAF837
:100FB0000220214908801848007878B9154800783F
:100FC00060B913480078012808D11048007801283A
:100FD00004D100F0C7F80220174908800E480078B5
:100FE000012810D10B48007801280CD1084800785E
:100FF000012808D105480078012804D100F01EF826
:1010000003200D4908803DE70C000020010000206E
:1010100003000020020000200000002025642020A2
:10102000202564092020256420092025640D0A005C
:1010300004000020060000200800002000200849CD
:1010400008600849C1F89401074908600649203141
:101050000860C720054908800549088070470000DE
:101060009C0121420000214288812142040000208D
:101070000600002001200949086000200849C1F845
:1010800094010120074908600020064920310860CA
:10109000AA20054908800549088070479C01214223
:1010A0000000214288812142040000200600002027
:1010B0000020094908600949C1F894010120084944
:1010C00008600020064920310860C72005490880D3
:1010D000AA200549088070479C0121420000214256
:1010E00088812142040000200600002000200949D8
:1010F000086001200849C1F89401084908600020EF
:10110000064920310860AF2005490880054908805C
:10111000704700009C012142000021428881214249
:10112000040000200600002001200949086000207A
:101130000849C1F89401084908600749203108604E
:10114000AA2006490880C72005490880704700008A
:101150009C0121420000214288812142040000209C
:101160000600002001200949086000200849C1F854
:101170009401084908600120064920310860AF2029
:101180000549088005490880704700009C012142FC
:101190000000214288812142040000200600002036
:1011A00010B586B00446012144F20400FFF738FA76
:1011B0004FF40070ADF8140003208DF816001820CD
:1011C0008DF8170005A91C48FFF73DF94FF4806022
:1011D000ADF8140004208DF8170005A91648FFF794
:1011E00032F925208DF8000003208DF801008DF8DC
:1011F000020001208DF803006846FFF7BDF9019455
:101200000020ADF80800ADF80A00ADF80C00ADF80C
:1012100010000C20ADF80E0001A90848FFF774FD7E
:10122000012240F225510548FFF748FD01210348FE
:10123000FFF70EFD06B010BD000801400038014068
:10124000601200080000002044000000280100088F
:10125000A4120008440000202C07000044010008EC
:10126000303030300000000000000000FFFFFFFFC2
:1012700000A24A0400000000000000000102030474
:101280000607080900000000000000000000000040
:101290000000010203040102030406070809020416
:0412A000060800003C
:04000005080001915D
:00000001FF
